{
  "abi": [
    {
      "anonymous": false,
      "inputs": [
        {
          "indexed": false,
          "internalType": "uint32",
          "name": "projectId",
          "type": "uint32"
        },
        {
          "indexed": false,
          "internalType": "uint256",
          "name": "newProposedDeadline",
          "type": "uint256"
        },
        {
          "indexed": true,
          "internalType": "address",
          "name": "accepter",
          "type": "address"
        }
      ],
      "name": "DeadlineExtended",
      "type": "event"
    },
    {
      "anonymous": false,
      "inputs": [
        {
          "indexed": false,
          "internalType": "uint256",
          "name": "amount",
          "type": "uint256"
        },
        {
          "indexed": true,
          "internalType": "address",
          "name": "claimer",
          "type": "address"
        }
      ],
      "name": "FundsClaimed",
      "type": "event"
    },
    {
      "anonymous": false,
      "inputs": [
        {
          "indexed": false,
          "internalType": "uint256",
          "name": "amount",
          "type": "uint256"
        },
        {
          "indexed": true,
          "internalType": "address",
          "name": "withdrawer",
          "type": "address"
        }
      ],
      "name": "FundsWithdrawn",
      "type": "event"
    },
    {
      "anonymous": false,
      "inputs": [
        {
          "indexed": false,
          "internalType": "uint32",
          "name": "projectId",
          "type": "uint32"
        },
        {
          "indexed": false,
          "internalType": "uint256",
          "name": "newProposedDeadline",
          "type": "uint256"
        },
        {
          "indexed": true,
          "internalType": "address",
          "name": "proposer",
          "type": "address"
        },
        {
          "indexed": false,
          "internalType": "uint256",
          "name": "newFreelancerQuote",
          "type": "uint256"
        }
      ],
      "name": "NewDeadlineProposed",
      "type": "event"
    },
    {
      "anonymous": false,
      "inputs": [
        {
          "indexed": false,
          "internalType": "uint32",
          "name": "projectId",
          "type": "uint32"
        },
        {
          "indexed": true,
          "internalType": "address",
          "name": "canceller",
          "type": "address"
        }
      ],
      "name": "ProjectCancelled",
      "type": "event"
    },
    {
      "anonymous": false,
      "inputs": [
        {
          "indexed": false,
          "internalType": "uint32",
          "name": "id",
          "type": "uint32"
        },
        {
          "indexed": true,
          "internalType": "address",
          "name": "client",
          "type": "address"
        },
        {
          "indexed": true,
          "internalType": "address",
          "name": "freelancer",
          "type": "address"
        }
      ],
      "name": "ProjectCreated",
      "type": "event"
    },
    {
      "anonymous": false,
      "inputs": [
        {
          "indexed": false,
          "internalType": "uint32",
          "name": "id",
          "type": "uint32"
        },
        {
          "indexed": true,
          "internalType": "address",
          "name": "client",
          "type": "address"
        },
        {
          "indexed": true,
          "internalType": "address",
          "name": "freelancer",
          "type": "address"
        }
      ],
      "name": "ProjectFinished",
      "type": "event"
    },
    {
      "anonymous": false,
      "inputs": [
        {
          "indexed": false,
          "internalType": "uint32",
          "name": "projectId",
          "type": "uint32"
        },
        {
          "indexed": true,
          "internalType": "address",
          "name": "rejecter",
          "type": "address"
        }
      ],
      "name": "ProjectRejected",
      "type": "event"
    },
    {
      "anonymous": false,
      "inputs": [
        {
          "indexed": false,
          "internalType": "uint32",
          "name": "id",
          "type": "uint32"
        },
        {
          "indexed": true,
          "internalType": "address",
          "name": "client",
          "type": "address"
        },
        {
          "indexed": true,
          "internalType": "address",
          "name": "freelancer",
          "type": "address"
        }
      ],
      "name": "ProjectStarted",
      "type": "event"
    },
    {
      "inputs": [
        {
          "internalType": "uint32",
          "name": "projectId",
          "type": "uint32"
        }
      ],
      "name": "acceptAndStartProject",
      "outputs": [],
      "stateMutability": "payable",
      "type": "function"
    },
    {
      "inputs": [
        {
          "internalType": "uint32",
          "name": "projectId",
          "type": "uint32"
        }
      ],
      "name": "acceptNewDeadline",
      "outputs": [],
      "stateMutability": "payable",
      "type": "function"
    },
    {
      "inputs": [
        {
          "internalType": "uint32",
          "name": "",
          "type": "uint32"
        }
      ],
      "name": "balancesByProject",
      "outputs": [
        {
          "internalType": "uint256",
          "name": "client",
          "type": "uint256"
        },
        {
          "internalType": "uint256",
          "name": "freelancer",
          "type": "uint256"
        }
      ],
      "stateMutability": "view",
      "type": "function"
    },
    {
      "inputs": [
        {
          "internalType": "uint32",
          "name": "projectId",
          "type": "uint32"
        }
      ],
      "name": "cancelProject",
      "outputs": [],
      "stateMutability": "nonpayable",
      "type": "function"
    },
    {
      "inputs": [
        {
          "internalType": "uint32",
          "name": "projectId",
          "type": "uint32"
        }
      ],
      "name": "claim",
      "outputs": [],
      "stateMutability": "nonpayable",
      "type": "function"
    },
    {
      "inputs": [
        {
          "internalType": "uint256",
          "name": "quote",
          "type": "uint256"
        },
        {
          "internalType": "uint256",
          "name": "deadline",
          "type": "uint256"
        },
        {
          "internalType": "address payable",
          "name": "client",
          "type": "address"
        },
        {
          "internalType": "string",
          "name": "title",
          "type": "string"
        }
      ],
      "name": "createProject",
      "outputs": [
        {
          "internalType": "uint32",
          "name": "projectId",
          "type": "uint32"
        }
      ],
      "stateMutability": "nonpayable",
      "type": "function"
    },
    {
      "inputs": [
        {
          "internalType": "uint32",
          "name": "projectId",
          "type": "uint32"
        }
      ],
      "name": "finishProject",
      "outputs": [],
      "stateMutability": "nonpayable",
      "type": "function"
    },
    {
      "inputs": [
        {
          "internalType": "uint32",
          "name": "projectId",
          "type": "uint32"
        }
      ],
      "name": "getClientBalance",
      "outputs": [
        {
          "internalType": "uint256",
          "name": "",
          "type": "uint256"
        }
      ],
      "stateMutability": "view",
      "type": "function"
    },
    {
      "inputs": [
        {
          "internalType": "uint32",
          "name": "projectId",
          "type": "uint32"
        }
      ],
      "name": "getFreelancerBalance",
      "outputs": [
        {
          "internalType": "uint256",
          "name": "",
          "type": "uint256"
        }
      ],
      "stateMutability": "view",
      "type": "function"
    },
    {
      "inputs": [
        {
          "internalType": "address",
          "name": "addr",
          "type": "address"
        }
      ],
      "name": "getProjectsByAddress",
      "outputs": [
        {
          "components": [
            {
              "internalType": "uint32",
              "name": "id",
              "type": "uint32"
            },
            {
              "internalType": "uint256",
              "name": "quote",
              "type": "uint256"
            },
            {
              "internalType": "uint256",
              "name": "deadline",
              "type": "uint256"
            },
            {
              "internalType": "uint256",
              "name": "lastClaimed",
              "type": "uint256"
            },
            {
              "internalType": "uint256",
              "name": "newProposedDeadline",
              "type": "uint256"
            },
            {
              "internalType": "uint256",
              "name": "newFreelancerQuote",
              "type": "uint256"
            },
            {
              "internalType": "bool",
              "name": "started",
              "type": "bool"
            },
            {
              "internalType": "bool",
              "name": "finished",
              "type": "bool"
            },
            {
              "internalType": "address payable",
              "name": "client",
              "type": "address"
            },
            {
              "internalType": "address payable",
              "name": "freelancer",
              "type": "address"
            },
            {
              "internalType": "uint256",
              "name": "startedAt",
              "type": "uint256"
            },
            {
              "internalType": "string",
              "name": "title",
              "type": "string"
            }
          ],
          "internalType": "struct Project[]",
          "name": "",
          "type": "tuple[]"
        }
      ],
      "stateMutability": "view",
      "type": "function"
    },
    {
      "inputs": [
        {
          "internalType": "uint32",
          "name": "",
          "type": "uint32"
        }
      ],
      "name": "projectById",
      "outputs": [
        {
          "internalType": "uint32",
          "name": "id",
          "type": "uint32"
        },
        {
          "internalType": "uint256",
          "name": "quote",
          "type": "uint256"
        },
        {
          "internalType": "uint256",
          "name": "deadline",
          "type": "uint256"
        },
        {
          "internalType": "uint256",
          "name": "lastClaimed",
          "type": "uint256"
        },
        {
          "internalType": "uint256",
          "name": "newProposedDeadline",
          "type": "uint256"
        },
        {
          "internalType": "uint256",
          "name": "newFreelancerQuote",
          "type": "uint256"
        },
        {
          "internalType": "bool",
          "name": "started",
          "type": "bool"
        },
        {
          "internalType": "bool",
          "name": "finished",
          "type": "bool"
        },
        {
          "internalType": "address payable",
          "name": "client",
          "type": "address"
        },
        {
          "internalType": "address payable",
          "name": "freelancer",
          "type": "address"
        },
        {
          "internalType": "uint256",
          "name": "startedAt",
          "type": "uint256"
        },
        {
          "internalType": "string",
          "name": "title",
          "type": "string"
        }
      ],
      "stateMutability": "view",
      "type": "function"
    },
    {
      "inputs": [
        {
          "internalType": "address",
          "name": "",
          "type": "address"
        },
        {
          "internalType": "uint256",
          "name": "",
          "type": "uint256"
        }
      ],
      "name": "projectIdsByAddress",
      "outputs": [
        {
          "internalType": "uint32",
          "name": "",
          "type": "uint32"
        }
      ],
      "stateMutability": "view",
      "type": "function"
    },
    {
      "inputs": [
        {
          "internalType": "address",
          "name": "",
          "type": "address"
        },
        {
          "internalType": "uint256",
          "name": "",
          "type": "uint256"
        }
      ],
      "name": "projectIdsByClient",
      "outputs": [
        {
          "internalType": "uint32",
          "name": "",
          "type": "uint32"
        }
      ],
      "stateMutability": "view",
      "type": "function"
    },
    {
      "inputs": [
        {
          "internalType": "uint32",
          "name": "projectId",
          "type": "uint32"
        }
      ],
      "name": "rejectProject",
      "outputs": [],
      "stateMutability": "nonpayable",
      "type": "function"
    },
    {
      "inputs": [
        {
          "internalType": "uint32",
          "name": "projectId",
          "type": "uint32"
        },
        {
          "internalType": "uint256",
          "name": "newDeadline",
          "type": "uint256"
        },
        {
          "internalType": "uint256",
          "name": "amountToAdd",
          "type": "uint256"
        }
      ],
      "name": "requestExtendDeadline",
      "outputs": [],
      "stateMutability": "nonpayable",
      "type": "function"
    },
    {
      "inputs": [
        {
          "internalType": "uint32",
          "name": "projectId",
          "type": "uint32"
        }
      ],
      "name": "withdraw",
      "outputs": [],
      "stateMutability": "nonpayable",
      "type": "function"
    }
  ],
  "bytecode": {
    "object": "0x608080604052346100235763ffffffff1960005416600055611f0e90816100298239f35b600080fdfe6080604052600436101561001257600080fd5b60003560e01c806303ca1ef51461188857806304951891146115a6578063075c8c7e1461148157806314bd4ac3146113a4578063183df5d91461136a578063204c469c1461130c5780635c3be95114610e4e57806379c7b91e14610cfa57806383b0f63914610c9c578063920fcf4b14610c5c5780639978c59e14610b0d578063aa9224cd14610a13578063bbd50532146109dc578063d5842c8b14610723578063f380e97f146102645763f7125ca1146100cc57600080fd5b3461025f5760208060031936011261025f5763ffffffff6100eb611955565b1690816000526001815261010d60ff60066040600020015460081c1615611c53565b816000526001815261012e600160ff60066040600020015416151514611cad565b81600052600181526040600020906002820154421115610205576006820180547f2a65389cefc6e9e4fdf57d7645ea3f5ccd38707ddd9a76198fe2fd004ffb63a692916001600160a01b0391600791839161010090601081901c8416331480156101f7575b61019c90611d05565b61ff001916178155876000526004855260406000206001815491016101c2828254611dc8565b905588600052600486526101dc6040600020918254611dd5565b90554260038801555460101c169401541693604051908152a3005b508885015484163314610193565b6084906040519062461bcd60e51b82526004820152602d60248201527f5468652070726f6a65637420646561646c696e6520686173206e6f742062656560448201526c1b881c995858da1959081e595d609a1b6064820152fd5b600080fd5b602036600319011261025f5763ffffffff61027d611955565b1660008181526001602052604090206006908101546102a99060101c6001600160a01b03163314611b9c565b81600052600160205260ff906102cc600183836040600020015416151514611cad565b8260005260016020526102eb82826040600020015460081c1615611c53565b8260005260016020526040600020916005830190815434036106b85784600052600160205261032681846040600020015460081c1615611c53565b846000526001602052610346600182856040600020015416151514611cad565b60008581526001602052604090208381015490919060101c6001600160a01b0316331480156106a2575b61037990611d05565b60028201548042116000146105c3575060016103c69187600052816020526103ad81876040600020015460081c1615611c53565b8760005281602052856040600020015416151514611cad565b8460005260016020526040600020600281015442111561056857808401546000949061010090601081901c6001600160a01b031633148015610552575b61040c90611d05565b61ff0019161781830155868552600460205260408520600181549101610433828254611dc8565b9055878652600460205261044c60408720918254611dd5565b90554260038301558101546007909101546040518781526001600160a01b039182169260101c909116907f2a65389cefc6e9e4fdf57d7645ea3f5ccd38707ddd9a76198fe2fd004ffb63a690602090a3600760018060a01b0391015416600080516020611eb98339815191526020604051858152a25b83825260046020528160016040822001546104ed6104e560018701928354611dd5565b845490611dc8565b6004860191825496600281019788556008429101555585825260046020526040822061051a348254611dc8565b905555555460405191825260208201527ff15465e85f6f222295efa2d03ed732e2e7689ab1b6477f907d89405ded7b3ebe60403392a2005b5060078401546001600160a01b03163314610403565b60405162461bcd60e51b815260206004820152602d60248201527f5468652070726f6a65637420646561646c696e6520686173206e6f742062656560448201526c1b881c995858da1959081e595d609a1b6064820152608490fd5b905081935060086105d692015490611dd5565b600383019060016105e8835442611dd5565b9401549384810294818604149015171561068c578015610676576000930490858452600460205261061f8260408620541015611d6e565b858452600460205260016040852001610639838254611dc8565b9055858452600460205260408420610652838254611dd5565b9055429055604051908152600080516020611eb983398151915260203392a26104c2565b634e487b7160e01b600052601260045260246000fd5b634e487b7160e01b600052601160045260246000fd5b5060078201546001600160a01b03163314610370565b60405162461bcd60e51b815260206004820152603960248201527f54686520616d6f756e742073656e74206d75737420626520657175616c20746f60448201527f20746865206e657720667265656c616e6365722071756f7465000000000000006064820152608490fd5b3461025f5760208060031936011261025f576001600160a01b039081610747611ac7565b168060005260038083526040600020549061076182611b32565b9261076f60405194856119bf565b828452601f1961077e84611b32565b018560005b82811061096f5750505060005b838110610884575050505060405191808301818452825180915260408401918060408360051b8701019401926000965b8388106107cd5786860387f35b90919293948380610873600193603f198b8203018752895163ffffffff8151168252838101518483015260408101516040830152606080820151908301526080808201519083015260a0808201519083015260c08082015115159083015260e0810151151560e083015261010087818301511690830152610120878183015116908301526101408082015190830152610160809101519161018080928201520190611a87565b9701930197019690939291936107c0565b81600052828652610899816040600020611add565b9063ffffffff9182915490861b1c1660005261094260096001808a52604060002090604051946108c8866119a2565b82541685528101548a8501526002810154604085015286810154606085015260048101546080850152600581015460a085015260068101548b60ff91828116151560c088015260089281841c16151560e088015260101c166101008601528b600783015416610120860152810154610140850152016119e1565b6101608201526109528287611b4a565b5261095d8186611b4a565b50600019811461068c57600101610790565b60405161097b816119a2565b6000815260008382015260006040820152606060008183015260006080830152600060a0830152600060c0830152600060e0830152600061010083015260006101208301526000610140830152610160820152828289010152018690610783565b3461025f57602036600319011261025f5763ffffffff6109fa611955565b1660005260046020526020604060002054604051908152f35b3461025f5760208060031936011261025f5763ffffffff610a32611955565b168060005260018252610a5660018060a01b03600760406000200154163314611de2565b806000526004825260016040600020015415610ac857600052600481527f6141b54b56b8a52a8c6f5cd2a857f6117b18ffbf4d46bd3106f300a839cbf5ea600160406000200191600083549355610abd600080808087335af1610ab7611e45565b50611e75565b6040519283523392a2005b60405162461bcd60e51b815260048101839052601d60248201527f596f752068617665206e6f2066756e647320746f2077697468647261770000006044820152606490fd5b3461025f57602036600319011261025f5763ffffffff610b2b611955565b16806000526001602052610b4e600160ff60066040600020015416151514611cad565b806000526001602052610b6f60ff60066040600020015460081c1615611c53565b8060005260016020526040600020610bc0600080808060018060a01b03600687015460101c163381148015610c46575b610ba890611d05565b87825260046020526040822054905af1610ab7611e45565b610bf0600080808060018060a01b0360078701541687825260046020526001604083200154905af1610ab7611e45565b81600052600460205260006001604082208281550155600661010061ff00198284015416179101556040519081527fcd38a9e815e264279335265896f91623a6b495d58a55900bcf95398cb8ed8c0960203392a2005b5060078701546001600160a01b03163314610b9f565b3461025f57602036600319011261025f5763ffffffff610c7a611955565b1660005260046020526040806000206001815491015482519182526020820152f35b3461025f57604036600319011261025f57610cb5611ac7565b6001600160a01b0316600090815260026020526040902080546024359081101561025f57610cea63ffffffff91602093611add565b9190546040519260031b1c168152f35b3461025f57606036600319011261025f57610d13611955565b6024359063ffffffff60443591169182600052602060018152610d4760018060a01b03600760406000200154163314611de2565b8360005260018152610d68600160ff60066040600020015416151514611cad565b8360005260018152610d8860ff60066040600020015460081c1615611c53565b836000526001815260406000206002810154831115610de35760058184600487940155015560405193845283015260408201527f8beee037fc49e8e4cf4498b041b2b7661bb8e847f905cffd709dfb13e4efa94360603392a2005b60405162461bcd60e51b815260048101839052603a60248201527f546865206e657720646561646c696e65206d757374206265206772656174657260448201527f207468616e207468652063757272656e7420646561646c696e650000000000006064820152608490fd5b3461025f57608036600319011261025f576044356001600160a01b038116810361025f576064359067ffffffffffffffff821161025f573660238301121561025f578160040135610e9e81611b16565b92610eac60405194856119bf565b818452366024838301011161025f57816000926024602093018387013784010152600435156112c757426024351115611282576001600160a01b0381161561122e576000549063ffffffff8083161461068c5763ffffffff19821663ffffffff838116600101161760005560405192610f24846119a2565b63ffffffff6001818516011684526004356020850152602435604085015242606085015260006080850152600060a0850152600060c0850152600060e085015260018060a01b038216610100850152336101208501524261014085015261016084015260018060a01b0381166000526003602052610fb163ffffffff600181851601166040600020611b5e565b336000526003602052610fd363ffffffff600181851601166040600020611b5e565b63ffffffff6001818416011660005260016020526101606009604060002063ffffffff86511663ffffffff198254161781556020860151600182015560408601516002820155606086015160038201556080860151600482015560a086015160058201556006810160c08701511515815461ff0060e08a015115159160ff62010000600160b01b036101008d015160101b1694169069ffffffffffffffffffff60b01b16179160081b16171790556007810160018060a01b03610120880151166bffffffffffffffffffffffff60a01b82541617905561014086015160088201550193015192835167ffffffffffffffff8111611218576110d48254611968565b601f81116111d0575b50806020958690601f831160011461116c57600092611161575b50508160011b916000199060031b1c19161790555b60405163ffffffff83811660010116815233916001600160a01b0316907f58a737656bd890d38c8ef12edb8d5d01737828d2b2303a1bdde20b196e1b00e2908590a363ffffffff600181604051931601168152f35b0151905086806110f7565b60008581528881209350601f198516905b8181106111b957509084600195949392106111a0575b505050811b01905561110c565b015160001960f88460031b161c19169055868080611193565b92938960018192878601518155019501930161117d565b826000526020600020601f830160051c8101916020841061120e575b601f0160051c01905b81811061120257506110dd565b600081556001016111f5565b90915081906111ec565b634e487b7160e01b600052604160045260246000fd5b60405162461bcd60e51b815260206004820152602660248201527f436c69656e742061646472657373206d75737420626520612076616c6964206160448201526564647265737360d01b6064820152608490fd5b60405162461bcd60e51b815260206004820152601e60248201527f446561646c696e65206d75737420626520696e207468652066757475726500006044820152606490fd5b60405162461bcd60e51b815260206004820152601c60248201527f51756f7465206d7573742062652067726561746572207468616e2030000000006044820152606490fd5b3461025f57604036600319011261025f57611325611ac7565b6001600160a01b0316600090815260036020526040902080546024359081101561025f5761135a63ffffffff91602093611add565b90549060031b1c16604051908152f35b3461025f57602036600319011261025f5763ffffffff611388611955565b1660005260046020526020600160406000200154604051908152f35b3461025f57602036600319011261025f5763ffffffff806113c3611955565b16600052600160205260406000209081541661147d60018301549260028101549060038101546004820154600583015460068401549060018060a01b0392836007870154169461141a6009600889015498016119e1565b976040519b8c9b8c5260208c015260408b015260608a0152608089015260a088015260ff8116151560c088015260ff8160081c16151560e088015260101c1661010086015261012085015261014084015261018080610160850152830190611a87565b0390f35b60208060031936011261025f5763ffffffff61149b611955565b16806000526001825260018060a01b036114c38160066040600020015460101c163314611b9c565b81600052600183526040600020600681016114e260ff82541615611bfb565b6001820154340361154e577f50901b32a6a3d67d2719171818093b056c2f28c45a42d1fbe1f5fe40482c13eb9291600791856000526004875260006001604082203481550155600160ff19825416179055426008820155426003820155015416926040519283523392a3005b60405162461bcd60e51b815260048101869052602a60248201527f54686520616d6f756e742073656e74206d75737420626520657175616c20746f604482015269207468652071756f746560b01b6064820152608490fd5b3461025f5760208060031936011261025f5763ffffffff6115c5611955565b16806000526001908183526006906115ea60ff836040600020015460081c1615611c53565b806000528284526116088360ff846040600020015416151514611cad565b600081815283855260409020828101546001600160a01b03949193919060101c851633148015611879575b61163c90611d05565b60028401548042116000146117cc57508260005280865261166a60ff836040600020015460081c1615611c53565b826000528086526116888160ff846040600020015416151514611cad565b82600052808652604060002091600283015442111561177157917f2a65389cefc6e9e4fdf57d7645ea3f5ccd38707ddd9a76198fe2fd004ffb63a68787600781819896600080516020611eb98339815191529b9a98870190610100825433858260101c16148015611763575b6116fd90611d05565b61ff001916178255886000526004865260406000209081549101611722828254611dc8565b9055886000526004865261173c6040600020918254611dd5565b90554260038801555460101c169401541693604051908152a30154169160405160008152a2005b5089860154851633146116f4565b60405162461bcd60e51b815260048101889052602d60248201527f5468652070726f6a65637420646561646c696e6520686173206e6f742062656560448201526c1b881c995858da1959081e595d609a1b6064820152608490fd5b600885015491969495506117e09250611dd5565b906003840191856117f2845442611dd5565b9501549485810295818704149015171561068c57801561067657600080516020611eb98339815191529404948160005260048452611837866040600020541015611d6e565b8160005260048452604060002001611850868254611dc8565b9055600052600482526040600020611869858254611dd5565b90554290556040519283523392a2005b50600784015485163314611633565b3461025f5760208060031936011261025f577f4d16dcd447b112b235cec614b2017aefa927528a4aa7e1f94c841588a8c0ab6463ffffffff6118c8611955565b169182600052600181526118f060018060a01b0360066040600020015460101c163314611b9c565b826000526001815261190d60ff6006604060002001541615611bfb565b826000526001815261192d60ff60066040600020015460081c1615611c53565b8260005260018152600660406000200161010061ff00198254161790556040519283523392a2005b6004359063ffffffff8216820361025f57565b90600182811c92168015611998575b602083101461198257565b634e487b7160e01b600052602260045260246000fd5b91607f1691611977565b610180810190811067ffffffffffffffff82111761121857604052565b90601f8019910116810190811067ffffffffffffffff82111761121857604052565b90604051918260008254926119f584611968565b908184526001948581169081600014611a645750600114611a21575b5050611a1f925003836119bf565b565b9093915060005260209081600020936000915b818310611a4c575050611a1f93508201013880611a11565b85548884018501529485019487945091830191611a34565b915050611a1f94506020925060ff191682840152151560051b8201013880611a11565b919082519283825260005b848110611ab3575050826000602080949584010152601f8019910116010190565b602081830181015184830182015201611a92565b600435906001600160a01b038216820361025f57565b9190918054831015611b0057600052601c60206000208360031c019260021b1690565b634e487b7160e01b600052603260045260246000fd5b67ffffffffffffffff811161121857601f01601f191660200190565b67ffffffffffffffff81116112185760051b60200190565b8051821015611b005760209160051b010190565b80546801000000000000000081101561121857611b8091600182018155611add565b819291549060031b9163ffffffff809116831b921b1916179055565b15611ba357565b60405162461bcd60e51b815260206004820152602a60248201527f4f6e6c792074686520636c69656e742063616e20706572666f726d20746869736044820152691037b832b930ba34b7b760b11b6064820152608490fd5b15611c0257565b60405162461bcd60e51b8152602060048201526024808201527f5468652070726f6a6563742068617320616c7265616479206265656e207374616044820152631c9d195960e21b6064820152608490fd5b15611c5a57565b60405162461bcd60e51b815260206004820152602560248201527f5468652070726f6a6563742068617320616c7265616479206265656e2066696e6044820152641a5cda195960da1b6064820152608490fd5b15611cb457565b60405162461bcd60e51b8152602060048201526024808201527f5468652070726f6a65637420686173206e6f74206265656e2073746172746564604482015263081e595d60e21b6064820152608490fd5b15611d0c57565b60405162461bcd60e51b815260206004820152603460248201527f4f6e6c792074686520636c69656e74206f7220667265656c616e6365722063616044820152731b8818d85b98d95b081d1a19481c1c9bda9958dd60621b6064820152608490fd5b15611d7557565b60405162461bcd60e51b815260206004820152602560248201527f436c61696d20616d6f756e74206578636565647320636c69656e7427732062616044820152646c616e636560d81b6064820152608490fd5b9190820180921161068c57565b9190820391821161068c57565b15611de957565b60405162461bcd60e51b815260206004820152602e60248201527f4f6e6c792074686520667265656c616e6365722063616e20706572666f726d2060448201526d3a3434b99037b832b930ba34b7b760911b6064820152608490fd5b3d15611e70573d90611e5682611b16565b91611e6460405193846119bf565b82523d6000602084013e565b606090565b15611e7c57565b60405162461bcd60e51b81526020600482015260146024820152732330b4b632b2103a379039b2b7321022ba3432b960611b6044820152606490fdfe6bd56533ce1c8ea03f7b858ac441b5a86d140a793a7c9e3faecbbe517c2c8791a2646970667358221220a3fc87cc5f37f903a6048c7d17bd4cceaa8ab7b766c8fd5206e45494d8fe671f64736f6c63430008140033",
    "linkReferences": {}
  },
  "methodIdentifiers": {
    "acceptAndStartProject(uint32)": "075c8c7e",
    "acceptNewDeadline(uint32)": "f380e97f",
    "balancesByProject(uint32)": "920fcf4b",
    "cancelProject(uint32)": "9978c59e",
    "claim(uint32)": "04951891",
    "createProject(uint256,uint256,address,string)": "5c3be951",
    "finishProject(uint32)": "f7125ca1",
    "getClientBalance(uint32)": "bbd50532",
    "getFreelancerBalance(uint32)": "183df5d9",
    "getProjectsByAddress(address)": "d5842c8b",
    "projectById(uint32)": "14bd4ac3",
    "projectIdsByAddress(address,uint256)": "204c469c",
    "projectIdsByClient(address,uint256)": "83b0f639",
    "rejectProject(uint32)": "03ca1ef5",
    "requestExtendDeadline(uint32,uint256,uint256)": "79c7b91e",
    "withdraw(uint32)": "aa9224cd"
  },
  "id": 18
}